:020000040000FA
:1000000000008A110A12B82C83120313AF007F0874
:10001000B0007E08B10005302F0203183E290030E1
:10002000831203138A001D30831203132F07031C4E
:100030001C28831203138A0A820022285B28942832
:10004000CD280629831203130130B2003008AF0017
:10005000AF1B3428003C03193D2883120313B20D53
:10006000013E031C2D283D28031083120313B21BED
:100070000314B20C013E031C34288312031332090B
:10008000AF0083160313050883120313AF0531086D
:10009000B2003008003C0319532883120313B20D39
:1000A000013E031C4D288312031332082F048316CC
:1000B000031385003E29013083120313B200300878
:1000C000AF00AF1B6D28003C031976288312031381
:1000D000B20D013E031C6628762803108312031319
:1000E000B21B0314B20C013E031C6D2883120313D0
:1000F0003209AF0083160313060883120313AF05FA
:100100003108B2003008003C03198C288312031315
:10011000B20D013E031C86288312031332082F04FC
:100120008316031386003E29013083120313B200A5
:100130003008AF00AF1BA628003C0319AF2883127C
:100140000313B20D013E031C9F28AF280310831236
:100150000313B21B0314B20C013E031CA628831226
:1001600003133209AF008316031307088312031326
:10017000AF053108B2003008003C0319C5288312CE
:100180000313B20D013E031CBF2883120313320870
:100190002F048316031387003E29013083120313B3
:1001A000B2003008AF00AF1BDF28003C0319E8287D
:1001B00083120313B20D013E031CD828E828031054
:1001C00083120313B21B0314B20C013E031CDF287D
:1001D000831203133209AF00831603130808831236
:1001E0000313AF053108B2003008003C0319FE28A4
:1001F00083120313B20D013E031CF828831203136C
:1002000032082F048316031388003E29013083121D
:100210000313B2003008AF00AF1B1829003C0319CC
:10022000212983120313B20D013E031C1129212938
:10023000031083120313B21B0314B20C013E031C00
:100240001829831203133209AF0083160313090818
:1002500083120313AF053108B2003008003C0319C4
:10026000372983120313B20D013E031C3129831277
:10027000031332082F048316031389000800831226
:100280000313AB007F08AC007E08AD0005302B02E5
:100290000318792A0130831203138A00583083121D
:1002A00003132B07031C5729831203138A0A8200A6
:1002B0005D299629CF29082A412A83120313013088
:1002C000AE002C08AB00AB1B6F29003C031978294A
:1002D00083120313AE0D013E031C68297829031015
:1002E00083120313AE1B0314AE0C013E031C6F29D3
:1002F000831203132E09AB00831203130508831224
:100300000313AB052D08AE002C08003C03198E2901
:1003100083120313AE0D013E031C882983120313BD
:100320002E082B04831203138500792A01308312CF
:100330000313AE002C08AB00AB1BA829003C03192B
:10034000B12983120313AE0D013E031CA129B1296B
:10035000031083120313AE1B0314AE0C013E031CE7
:10036000A829831203132E09AB0083120313060876
:1003700083120313AB052D08AE002C08003C0319B3
:10038000C72983120313AE0D013E031CC12983123A
:1003900003132E082B04831203138600792A0130DD
:1003A00083120313AE002C08AB00AB1BE129003C09
:1003B0000319EA2983120313AE0D013E031CDA2947
:1003C000EA29031083120313AE1B0314AE0C013E83
:1003D000031CE129831203132E09AB0083120313BC
:1003E000070883120313AB052D08AE002C08003C50
:1003F0000319002A83120313AE0D013E031CFA29D0
:10040000831203132E082B04831203138700792A07
:10041000013083120313AE002C08AB00AB1B1A2A69
:10042000003C0319232A83120313AE0D013E031C63
:10043000132A232A031083120313AE1B0314AE0CDA
:10044000013E031C1A2A831203132E09AB008312E8
:100450000313080883120313AB052D08AE002C0804
:10046000003C0319392A83120313AE0D013E031C0D
:10047000332A831203132E082B04831203138800DC
:10048000792A013083120313AE002C08AB00AB1B9A
:10049000532A003C03195C2A83120313AE0D013E5C
:1004A000031C4C2A5C2A031083120313AE1B031493
:1004B000AE0C013E031C532A831203132E09AB001A
:1004C00083120313090883120313AB052D08AE0032
:1004D0002C08003C0319722A83120313AE0D013E4F
:1004E000031C6C2A831203132E082B04831203139C
:1004F0008900080083120313BD007F08BE00BF01FE
:1005000005303D020318952B0230831203138A0035
:100510009230831203133D07031C912A83120313A5
:100520008A0A8200972ACA2AFD2A302B632B0030C0
:1005300083120313C0000130BD003E08003C0319C4
:10054000A82A83120313BD0DC00D013E031CA12A6E
:1005500083160313050883120313C100C201410867
:10056000BD050030C0054008C2003D08C1003E087E
:10057000003C0319C52A031083120313C21B031482
:10058000C20CC10C013E031CBB2A83120313410899
:10059000BF00952B003083120313C0000130BD0053
:1005A0003E08003C0319DB2A83120313BD0DC00D66
:1005B000013E031CD42A8316031306088312031377
:1005C000C100C2014108BD050030C0054008C2009D
:1005D0003D08C1003E08003C0319F82A03108312AD
:1005E0000313C21B0314C20CC10C013E031CEE2AF0
:1005F000831203134108BF00952B003083120313AD
:10060000C0000130BD003E08003C03190E2B8312D0
:100610000313BD0DC00D013E031C072B83160313EE
:10062000070883120313C100C2014108BD05003051
:10063000C0054008C2003D08C1003E08003C031947
:100640002B2B031083120313C21B0314C20CC10C07
:10065000013E031C212B831203134108BF00952B7D
:10066000003083120313C0000130BD003E08003C7F
:100670000319412B83120313BD0DC00D013E031C52
:100680003A2B83160313080883120313C100C20117
:100690004108BD050030C0054008C2003D08C1004A
:1006A0003E08003C03195E2B031083120313C21B88
:1006B0000314C20CC10C013E031C542B8312031300
:1006C0004108BF00952B003083120313C000013096
:1006D000BD003E08003C0319742B83120313BD0DAB
:1006E000C00D013E031C6D2B8316031309088312F2
:1006F0000313C100C2014108BD050030C005400818
:10070000C2003D08C1003E08003C0319912B0310B4
:1007100083120313C21B0314C20CC10C013E031C41
:10072000872B831203134108BF00831203133F0872
:10073000080083120313B7007F08B800B901053021
:1007400037020318B42C0330831203138A00B1302C
:10075000831203133707031CB02B831203138A0A77
:100760008200B62BE92B1C2C4F2C822C00308312DC
:100770000313BA000130B7003808003C0319C72B37
:1007800083120313B70DBA0D013E031CC02B831255
:100790000313050883120313BB00BC013B08B70514
:1007A0000030BA053A08BC003708BB003808003CE6
:1007B0000319E42B031083120313BC1B0314BC0C9A
:1007C000BB0C013E031CDA2B831203133B08B90058
:1007D000B42C003083120313BA000130B70038087C
:1007E000003C0319FA2B83120313B70DBA0D013E17
:1007F000031CF32B83120313060883120313BB009D
:10080000BC013B08B7050030BA053A08BC00370800
:10081000BB003808003C0319172C03108312031384
:10082000BC1B0314BC0CBB0C013E031C0D2C83121F
:1008300003133B08B900B42C003083120313BA0031
:100840000130B7003808003C03192D2C8312031324
:10085000B70DBA0D013E031C262C831203130708A3
:1008600083120313BB00BC013B08B7050030BA0577
:100870003A08BC003708BB003808003C03194A2C72
:10088000031083120313BC1B0314BC0CBB0C013EEE
:10089000031C402C831203133B08B900B42C003016
:1008A00083120313BA000130B7003808003C031963
:1008B000602C83120313B70DBA0D013E031C592C93
:1008C00083120313080883120313BB00BC013B0807
:1008D000B7050030BA053A08BC003708BB00380835
:1008E000003C03197D2C031083120313BC1B03145B
:1008F000BC0CBB0C013E031C732C831203133B087E
:10090000B900B42C003083120313BA000130B700D1
:100910003808003C0319932C83120313B70DBA0D4A
:10092000013E031C8C2C831203130908831203134A
:10093000BB00BC013B08B7050030BA053A08BC0053
:100940003708BB003808003C0319B02C0310831291
:100950000313BC1B0314BC0CBB0C013E031CA62CD4
:10096000831203133B08B9008312031339080800EC
:100970006A30FE000930FF0080308A150A1200201C
:100980008A110A1283120313DA007F08D9006C302F
:10099000DB000930DC00831203135908DD005A081C
:1009A000DE00FF30D907031CDA035E085D0403197B
:1009B000502D04305B07DD00DE01DE0D5C08DE0734
:1009C0005D08FE005E08FF0080308A150A120020D4
:1009D0008A110A1283120313E0007F08DF005B080C
:1009E000FE005C08FF0080308A150A1200208A1180
:1009F0000A1283120313E200DE007F08DD00E1002B
:100A000002305B07DD00DE01DE0D5C08DE075D08FD
:100A1000FE005E08FF0080308A150A1200208A114D
:100A20000A1283120313DE00E4007F08E300DD00F6
:100A3000831203135F08E3006008E400FF30DF0760
:100A4000031CE003640863040319492D6108FE00D8
:100A50006208FF0080308A150A1221208A110A12CA
:100A600083120313E3005D088312031384008313CE
:100A7000831203135E188317630883120313800025
:100A800083120313E10A0319E20ADD0A0319DE0ADD
:100A9000182D063083120313DB070318DC0ACB2C56
:100AA0008A150A126428080083120313C601C701BD
:100AB000C801831203134708A03EC9000030CA00D2
:100AC00048080318480FCA0701304907CB00CC017A
:100AD000CC0D4A08CC074B08831203138400831300
:100AE000831203134C188317831203130008013A6F
:100AF000031DB62D8A150A12BE208A110A1283120E
:100B0000031349088312031384008313831203130E
:100B10004A18831783120313000883120313CB00B0
:100B2000653EC90000300318013ECA00490883121F
:100B3000031384008313831203134A188317831249
:100B40000313000883120313CB00FF0003308A1144
:100B50000A129C278A110A120130FF008312031324
:100B600046088A110A12CA258A110A120530FF00A6
:100B700000308A150A1234208A110A1202308312B8
:100B80000313C7070318C80AC60A04304602031C29
:100B9000592D080083120313D4007F08D5000230BA
:100BA000FF0054088A150A1293208A110A12831230
:100BB0000313D7007F08D600A03ED60057080318BD
:100BC000570F003ED700D60A0319D70A56088312DA
:100BD00003138400831383120313571883175508D4
:100BE000831203138000043083120313540203188A
:100BF0003E2E0630831203138A000730831203133C
:100C00005407031C062E831203138A0A82000B2E3C
:100C1000182E252E322E831203135508FE000430A1
:100C2000FF0001308A110A123F218A110A123E2E5A
:100C3000831203135508FE000530FF0001308A11AE
:100C40000A123F218A110A123E2E831203135508FD
:100C5000FE000630FF0001308A110A123F218A117E
:100C60000A123E2E831203135508FE000730FF00C0
:100C700001308A110A123F218A110A1208008312D8
:100C80000313D8000030FF0003308A110A125D27D9
:100C90008A110A12043083120313580203188D2E8E
:100CA0000630831203138A005E3083120313580741
:100CB000031C5D2E831203138A0A8200622E6D2E9E
:100CC000782E832E0030FE000430FF0001308A11A0
:100CD0000A1204208A110A128D2E0030FE000530FF
:100CE000FF0001308A110A1204208A110A128D2E87
:100CF0000030FE000630FF0001308A110A12042085
:100D00008A110A128D2E0030FE000730FF000130DC
:100D10008A110A1204208A110A120800831203138E
:100D2000CF00D00104304F020318D72E06308312B3
:100D300003138A00A430831203134F07031CA32E4E
:100D4000831203138A0A8200A82EB42EC02ECC2E42
:100D50000430FF0001308A110A1299238A110A1205
:100D600083120313D000D72E0530FF0001308A1103
:100D70000A1299238A110A1283120313D000D72E64
:100D80000630FF0001308A110A1299238A110A12D3
:100D900083120313D000D72E0730FF0001308A11D1
:100DA0000A1299238A110A1283120313D0008312A4
:100DB00003135008080083120313B500B601053071
:100DC00035020318182F0630831203138A00F130FE
:100DD000831203133507031CF02E831203138A0AB0
:100DE0008200F62EFD2E042F0B2F122F83160313D5
:100DF000050883120313B600182F83160313060881
:100E000083120313B600182F8316031307088312E7
:100E10000313B600182F8316031308088312031355
:100E2000B600182F83160313090883120313B600A4
:100E3000831203133608080083120313B300B401AE
:100E4000053033020318592F0730831203138A0029
:100E50003230831203133307031C312F8312031321
:100E60008A0A8200372F3E2F452F4C2F532F831293
:100E70000313050883120313B400592F83120313BD
:100E8000060883120313B400592F831203130708B3
:100E900083120313B400592F83120313080883121B
:100EA0000313B400592F8312031309088312031389
:100EB000B400831203133408080083120313A9003B
:100EC0007F08AA000530290203189B2F07308312E0
:100ED00003138A007430831203132907031C732F32
:100EE000831203138A0A8200792F802F872F8E2F77
:100EF000952F831203132A088316031385009B2F53
:100F0000831203132A088316031386009B2F831270
:100F100003132A088316031387009B2F83120313DE
:100F20002A088316031388009B2F831203132A08B1
:100F3000831603138900080083120313A7007F0898
:100F4000A800053027020318DA2F07308312031395
:100F50008A00B330831203132707031CB22F8312B6
:100F600003138A0A8200B82FBF2FC62FCD2FD42F8C
:100F7000831203132808831203138500DA2F8312C8
:100F800003132808831203138600DA2F8312031336
:100F90002808831203138700DA2F8312031328080B
:100FA000831203138800DA2F831203132808831295
:100FB00003138900080083120313CD000230FF00E1
:100FC0004D088A150A1293208A110A1283120313FC
:100FD000CE007F08CD00A03ECD004E0803184E0F76
:100FE000003ECE004D088312031384008313831246
:100FF00003134E1883178312031300080800080018
:10100000003A03190828803A03191228FF01003416
:101010007E08840083137F1883170008FF00840A6A
:10102000000808008A150A122F20FD00FE0FFF039A
:10103000FF0A8A150A122F20FC007D08FF007C0899
:101040000800003A03192828803A03192F28003491
:101050007E08840083137F188317000808007F0828
:101060008A007E088200080083160313B0007F0800
:10107000AF00B101B201831603133108B300320887
:10108000B4003002031D462833082F02031C6328D6
:1010900083160313B301B401831603133408803E8F
:1010A000803E031D55287930330203185D288316CE
:1010B0000313B30A0319B40A4C2883160313B10AA5
:1010C0000319B20A3B2808000130FE000130FF007E
:1010D00000308A150A120E218A150A120130FE000C
:1010E0000030FF0001308A150A120E218A150A12FB
:1010F0000230FE000030FF0002308A150A120E2175
:101100008A150A120A30FE000030FF0003308A15EB
:101110000A120E218A150A128A110A1254258A15FA
:101120000A128C28080083160313A8007F08A90060
:10113000AA01AB01AC010830831603132C0203187B
:10114000B8280310AA0DAB0DA81FAF280030AE00C1
:101150002908AD00AA072E0803182E0FAB07831627
:1011600003132808AD0003102D0DA800AC0A9B281E
:10117000831603132A08FF002B0808000030FE0026
:101180000430FF0001308A110A123F218A150A1229
:101190000030FE000530FF0001308A110A123F21A5
:1011A0008A150A120030FE000630FF0001308A1155
:1011B0000A123F218A150A120030FE000730FF0094
:1011C00001308A110A123F218A150A12080083127F
:1011D0000313D1007F08D2000230FF0051088A15A6
:1011E0000A1293208A150A1283120313D3007F0870
:1011F000D100A03ED10053080318530F003ED30086
:1012000051088312031384008313831203135318AA
:1012100083175208831203138000080083120313FC
:10122000C3007F08C4007E08C50043088A110A1263
:101230003F268A150A12831203134508FF0043084C
:101240008A150A12E7208A150A128312031344082A
:10125000FF0043088A110A12CA258A150A120800DB
:1012600083120313A3007F08A4007E08A5007D0855
:10127000A6002508FE002408FF0023088A110A1290
:1012800004208A150A12831203132608FE0024087C
:10129000FF0023088A110A123F218A150A1208004A
:1012A00083120313A0007F08A1007E08A20021087A
:1012B000FF0020088A110A125D278A150A1283127C
:1012C00003132208FF0020088A110A129C278A159E
:1012D0000A120800023400347834093465340034CA
:1012E0000B34003488340934B5340034013400340C
:1012F0003F3406345B344F3466346D347D34073408
:101300007F346F340034080008000800080008002B
:021310000034A7
:02400E00323F3F
:00000001FF
